:020000040000FA
:10000000D0FFFF1F650300006D0300006F030000B9
:1000100000000000000000000000000000000000E0
:10002000000000000000000000000000710300005C
:1000300000000000000000007303000075030000D2
:1000400077030000770300007703000077030000C8
:1000500077030000770300007703000077030000B8
:1000600077030000770300007703000077030000A8
:1000700011040000770300007703000077030000FD
:100080007703000077030000770300007703000088
:100090007703000077030000770300007703000078
:1000A0007703000077030000770300007703000068
:1000B0007703000077030000770300007703000058
:1000C00000F002F800F03EF80CA030C80838241800
:1000D0002D18A246671EAB4654465D46AC4201D180
:1000E00000F030F87E460F3E0FCCB6460126334274
:1000F00000D0FB1AA246AB4633431847080800005D
:1001000028080000103A02D378C878C1FAD85207FC
:1001100001D330C830C101D504680C6070470000BD
:100120000023002400250026103A01D378C1FBD813
:10013000520700D330C100D50B6070471FB51FBDFB
:1001400010B510BD00F02BF91146FFF7F7FF00F0D6
:10015000A3F900F043F903B4FFF7F2FF03BC00F08A
:1001600049F9000010B5002030E04A49896B0201CE
:10017000494BD21892681143464A91639115020186
:10018000D21852680301444C1B191B7B9B00D150B1
:10019000010122465158496902012346D218137BB6
:1001A00001229A401143020123469A5851610101EC
:1001B0001A46515849680201D218137B01229A400D
:1001C0001143020123469A585160401C0328CCDB9E
:1001D00010BD10B5002904D0012912D0022930D158
:1001E0001FE002012C4B9A58526803012A4C1B193C
:1001F0001C7B0123A3401A430301274CE3585A6098
:100200001FE00201244B9A5892680301224C1B19EB
:100210001C7B0123A3401A4303011F4CE3589A603F
:100220000FE002011C4B9A58D26803011A4C1B19AB
:100230001C7B0123A3401A430301174CE358DA60E7
:1002400000BF00BF10BD30B505460C460121284651
:10025000FFF7BFFF002001E000BF401C0F496143D2
:100260008142F9D800212846FFF7B3FF002001E0C2
:1002700000BF401C094961438142F9D830BD10B527
:10028000002404E0E0B26421FFF7DDFF641C032CCE
:10029000F8DB10BD0080044000FCFF1F10270000A9
:1002A0002B48406B012189020843294948630846CD
:1002B000806B091508432649886308464068012178
:1002C00089060843224948604815224948608860E9
:1002D0002148C0780C2188431F49C870002008704D
:1002E0005B2048700846807A4009400188720846C1
:1002F000807A0F210843184988720846C07A022183
:1003000008431549C8720846C0782021084312499D
:10031000C8700846C0780C2108430F49C8700C20EB
:10032000002809DB00BF00BFC206D20E01219140A8
:100330000A4A116000BF00BF00BF0C20002805DB87
:10034000C206D20E01219140054A116000BF7047DC
:100350000080044000A0044000A0064000E100E04E
:1003600080E200E00748804707480047FEE7FEE7D5
:10037000FEE7FEE7FEE7FEE704480549034A054BB2
:100380007047000099050000C1000000D0FCFF1F6D
:10039000D0FFFF1FD0FCFF1F7047704770477546A6
:1003A00000F024F8AE46050069465346C008C00078
:1003B000854618B020B5FFF7DFFF60BC002749086D
:1003C000B6460026C0C5C0C5C0C5C0C5C0C5C0C5ED
:1003D000C0C5C0C5403D49008D46704710B50446B4
:1003E000C046C0462046FFF7B6FE10BD0048704725
:1003F00070FCFF1F01491820ABBEFEE7260002007B
:10040000FFFFFFFFFFFFFFFFFFFFFFFFFEFFFFFFFD
:10041000554800792021084000283CD05248C07936
:100420005249087052480078002825D108460078C3
:100430000A2816D04F48007800281DD108460078B9
:100440004D494E4A127888544C480078401C4B491C
:1004500008700846007810280ED101204549087020
:100460000AE044480078002803D14349434A1278FF
:10047000885401203E4908700C20002809DB00BF89
:1004800000BFC206D20E012191403D4A116000BF5B
:1004900000BF00BF00BF7047FFF764FEFFF700FF1B
:1004A00060E03348007800285CD0324800780028AB
:1004B00020D000240CE000BF2B48007980210840A8
:1004C0000028F9D02F48005D2749C871601CC4B2CC
:1004D0002C48005D0028EED100BF23480079802120
:1004E00008400028F9D00A201F49C871002021497E
:1004F000087032E02449204800F004F9002804D1B3
:10050000FF2001302149886027E021491A4800F086
:10051000F9F8002804D1FF2001301C4948601CE094
:1005200000240CE000BF104800798021084000281A
:10053000F9D01848005D0C49C871601CC4B2154858
:10054000005D0028EED100BF0748007980210840F7
:100550000028F9D00A200449C87100200749087012
:10056000034908709DE7000000A0064058FCFF1FEB
:100570005AFCFF1F5BFCFF1F60FCFF1F57FCFF1FA7
:1005800000E100E047FCFF1F30FCFF1F40F00F4080
:1005900035FCFF1F3BFCFF1F002053490860012072
:1005A00000045149C03948600620504908700020B5
:1005B00048700846C0788006800E202108434B49C9
:1005C000C87080204A49087000BF484880791021CF
:1005D00008400028F9D000BF444880790C21084029
:1005E0000028F9D1704770B540480078C021084014
:1005F000002847D13D4800780421084000280ED14A
:100600004C033A48007838210840C108012088404E
:10061000C5B22946204600F0B9F8044601E001249D
:10062000E4033248C078E0210840C106C90E002921
:1006300026D14011030000F057F90805090D1115E6
:10064000191D20230520C00144431AE005200002A3
:10065000444316E00F20C001444312E0052040024D
:1006600044430EE0B720800044430AE0B720C000B6
:10067000444306E01F48444303E01F48444300E06E
:1006800000BF24E019480078C0210840402815D157
:1006900016484078C007C00F002802D10124E403A7
:1006A00015E01248007A0E221040420801209040C6
:1006B0000146124800F06AF8044608E00B4800784A
:1006C000C0210840802801D1040200E070BD064826
:1006D000C0384068000F411C204600F057F8084918
:1006E000086000BFF2E700000081044000400640BF
:1006F0000050064095080000710B000000093D0005
:100700005CFCFF1F024670B50A4392072AD11E4DBA
:10071000EE0104C808C9541B9443344017D0D0B22A
:10072000D9B2401A2106014310D190B299B2401AB1
:10073000210401430AD110021902000A090A401AD1
:100740002102014302D1100E190E401A70BD9A42C7
:10075000DFD010BA19BA884201D9012070BD00203B
:10076000C04370BD02780B78401C491C002A09D098
:100770009A4207D102780B78401C491C002A01D00C
:100780009A42EFD0D01A70BD010101010022030985
:100790008B422CD3030A8B4211D300239C464EE09C
:1007A00003460B433CD4002243088B4231D3030958
:1007B0008B421CD3030A8B4201D394463FE0C3090A
:1007C0008B4201D3CB01C01A524183098B4201D322
:1007D0008B01C01A524143098B4201D34B01C01A0D
:1007E000524103098B4201D30B01C01A5241C30885
:1007F0008B4201D3CB00C01A524183088B4201D3F4
:100800008B00C01A524143088B4201D34B00C01ADF
:100810005241411A00D201465241104670475DE0F4
:10082000CA0F00D04942031000D340425340002277
:100830009C4603098B422DD3030A8B4212D3FC2220
:10084000890112BA030A8B420CD3890192118B429F
:1008500008D3890192118B4204D389013AD09211B5
:1008600000E08909C3098B4201D3CB01C01A524170
:1008700083098B4201D38B01C01A524143098B4239
:1008800001D34B01C01A524103098B4201D30B0122
:10089000C01A5241C3088B4201D3CB00C01A524147
:1008A00083088B4201D38B00C01A5241D9D243082E
:1008B0008B4201D34B00C01A5241411A00D201466B
:1008C000634652415B10104601D34042002B00D5D5
:1008D0004942704763465B1000D3404201B5002097
:1008E000C046C04602BD704730B47446641E2578C9
:1008F000641CAB4204D3635D5B00E31830BC184753
:100900001D46F8E72409000000FCFF1F60000000FE
:10091000040100008409000060FCFF1F7003000058
:100920002001000040F00F4000A00440000400003F
:100930000800000040F00F4000A004400004000048
:100940000900000040F00F4000A004400004000037
:100950000A0000004C524F4E004C524F4646005A7F
:100960006C61206B6F6D656E6461005A62797420F2
:10097000646C7567692063696167000000000000AE
:0409800000008002F1
:04000005000000C136
:00000001FF
