:020000040000FA
:1000000078FFFF1F41030000490300004B0300007D
:1000100000000000000000000000000000000000E0
:100020000000000000000000000000004D03000080
:1000300000000000000000004F030000510300001A
:100040005303000053030000530300005303000058
:100050005303000053030000530300005303000048
:100060005303000053030000530300005303000038
:10007000530300005303000053030000BD070000BA
:100080005303000053030000530300005303000018
:100090005303000053030000530300005303000008
:1000A00053030000530300005303000053030000F8
:1000B00053030000530300005303000053030000E8
:1000C00000F002F800F04EF80CA030C808382418F0
:1000D0002D18A246671EAB4654465D46AC4201D180
:1000E00000F040F87E460F3E0FCCB6460126334264
:1000F00000D0FB1AA246AB4633431847C81A00008B
:10010000E81A0000103A02D378C878C1FAD852072A
:1001100001D330C830C101D504680C6070470000BD
:100120000023002400250026103A01D378C1FBD813
:10013000520700D330C100D50B60704710B5662957
:1001400002D101F0EDFC10BD002010BD1FB500F084
:1001500053F904000020002101F074FCE0601FBD91
:1001600010B510BD01F0B6FB1146FFF7EFFF00F030
:1001700049FB01F0CEFB03B4FFF7F2FF03BC01F033
:1001800015FC000070B505460C46164602E00FCC83
:100190000FC5103E102EFAD2082E02D303CC03C591
:1001A000083E042E07D301CC01C5361F03E0217899
:1001B0002970641C6D1C761EF9D270BD4448C06B5A
:1001C0000122D2061043424AD0631046806B52157A
:1001D00010433F4A90633F48006807221202904351
:1001E0003C4A106051203C4A90600420D0600720B7
:1001F00050621046406A80221043374A506200BF66
:100200003548406A802210400028F9D13248406ABF
:1002100040221040002806D02F48406A10432E4A42
:1002200050620120704700212B484030C0684018C0
:1002300081B2294840308068401881B22648403059
:100240004068401881B2244840300068401881B2AC
:100250002148C06B401881B21F48806B401881B2A2
:100260001D48406B401881B20846CA0F1218511041
:100270000120C00301431848C1621F20164A1060C4
:100280001046C06804221043134AD06015209060C5
:100290001046406A082210430F4A50620F2000287F
:1002A00005DBC306DB0E01229A400C4B1A6000BF2F
:1002B0000F20002809DB00BF00BFC306DB0E0122B0
:1002C0009A40074B1A6000BF00BF00BF0020A9E79B
:1002D000008004400090044000B0034080E200E051
:1002E00000E100E01348C06B0121C9070843114930
:1002F000C8630846806B091508430E4988630E4899
:100300004078A02108430C494870704701460B48CB
:10031000814201DD01207047CAB2074820380270CF
:100320000A1242700448407810231843024B587058
:100330000020F0E70080044020F00340FF0F0000A1
:100340000748804707480047FEE7FEE7FEE7FEE76D
:10035000FEE7FEE704480549034A054B70470000E5
:10036000C5080000C100000078FCFF1F78FFFF1FD8
:1003700078FCFF1F0FB41CB5074B06AA7B446946E7
:100380000090059800F0C9FE0020694600F0D8FEF4
:100390001CBC08BC04B01847C10D00007047704772
:1003A000704700000121C9050123411842001B06C6
:1003B000D3185B0E0AD0C1100722D2068918400755
:1003C0005242D14201D5520089187047090208D51E
:1003D0000146002A03D0C10FC9070020704710460C
:1003E0007047420202D000200249704707210905E8
:1003F0000143F4E70000F87F0048704738FCFF1F16
:10040000FFFFFFFFFFFFFFFFFFFFFFFFFEFFFFFFFD
:100410005F48406B402108435D4948630846806B54
:10042000091508435A4988635A48C0684915084362
:100430005849C8600846006949150843554908618C
:100440005548807880218843534988700846407811
:100450004021084350494870084640781921084314
:100460004D49487008468078202108434A498870E1
:1004700008468078102108434749887008468078EC
:100480000821084344498870084680784021084381
:1004900041498870704740488078802188433E49B0
:1004A000887070473C488078202188433A4988709A
:1004B000704700203949088004E038480088401C13
:1004C000364908803448C07802210840002804D109
:1004D0003248008832498842EFDB30480088304992
:1004E000884205DB2F480078012108432D49087018
:1004F0002948C078C007C00F002805D029480078D7
:1005000002210843274908702348C0780221084384
:100510002149C87070472049087170471E4880788B
:10052000202108431C49887070471B48807810219F
:10053000084319498870704717488078802108431C
:1005400015498870704700B502460B4600201549D2
:100550000870FFF7F1FFFFF7E8FFFFF7DFFF510635
:10056000080EFFF7D8FFFFF7A4FF1846FFF7D3FFE9
:10057000FFF79FFFFFF796FFFFF78DFF0948007811
:1005800000BD0548807804210843034988707047FE
:100590000080044000A004400060064002FCFF1FF1
:1005A0001027000000FCFF1F10B504467D480078AE
:1005B000002801D0082000E00020014621437A48AD
:1005C0000078FFF7C0FF10BD70B504460D4621014D
:1005D000F0221140002D01D0012200E00022114341
:1005E000042208461043FFF7DFFF2101F0221140EB
:1005F000002D01D0012200E0002208461043FFF741
:10060000D3FF002001E000BF401C68498842FAD3B4
:1006100070BD70B504460D462106080F2946FFF748
:10062000D3FF2007000F2946FFF7CEFF70BD10B59E
:1006300000212720FFF787FF02210840002802D170
:1006400027205949087000213F20FFF77CFF022135
:100650000840002802D13F205349087010BD10B552
:10066000FFF7D6FEFFF7E3FF002001E000BF401CCC
:100670004F498842FAD300213320FFF7CAFF0021F7
:100680003220FFF7C6FF00212C20FFF7C2FF002118
:100690000820FFF7BEFF00210120FFF7BAFF00216D
:1006A0000C20FFF7B6FF10BD10B500210D20FFF79D
:1006B000B0FF10BD10B500210C20FFF7AAFF10BD40
:1006C00070B505460C46012C00DD01242946803119
:1006D000A2018918C8B20021FFF79BFF70BD10B5B9
:1006E00000210120FFF795FF10BD70B504460025DD
:1006F00005E0605D0121FFF78CFF681CC5B2605DFD
:100700000028F6D170BDF8B505460C460027002D2F
:1007100006D130202070641C002020700120F8BD1C
:10072000002D05DA6D422D202070641C781CC7B2A4
:100730002E4605E00A21304600F00BFA0646641CFE
:10074000002EF7DC002020702E460EE00A213046F5
:1007500000F0FFF93031601E04460170781CC7B20A
:100760000A21304600F0F5F90646002EEEDC384648
:10077000D5E73EB5044669462046FFF7C4FF054667
:100780006846FFF7B2FF052D02DA0AA0FFF7ADFFBA
:100790003EBD10B50446034804700020FFF704FF77
:1007A00010BD000004FCFF1F05FCFF1F204E0000D1
:1007B000A0680600202020202020000010B532482C
:1007C00000693249088032480078002808D108467C
:1007D000008800F08DFA2F49086001202C4908702C
:1007E0002A4909882C4A511A88B2FFF78FFD0F2039
:1007F000002805DBC206D20E01219140274A116074
:1008000000BF10BD86B0142225A101A8FFF7BAFCD5
:10081000FFF725FF0120FFF7BCFF00210846FFF787
:100820004FFF24A0FFF761FFFFF7C8FC0646002E2C
:1008300001D000BFFEE7FFF755FD4C2012490860CC
:1008400020E01348007800281CD01B48016811489C
:10085000006801F00DF90F49086008460068FFF7CD
:10086000A1FD044622460B4614A101A8FFF782FD14
:1008700000210320FFF724FF01A8FFF736FF002027
:1008800003490870DDE7000000B003400EFCFF1FC5
:100890000CFCFF1F10FCFF1FFF0F000080E200E0B8
:1008A0002020202020202020202020202020202048
:1008B00020000000556B3D0008FCFF1F252E33660D
:1008C00056000000002053490860012000045149EF
:1008D000C03948600620504908700020487008461A
:1008E000C0788006800E202108434B49C8708020C4
:1008F0004A49087000BF4848807910210840002804
:10090000F9D000BF444880790C2108400028F9D173
:10091000704770B540480078C0210840002847D192
:100920003D4800780421084000280ED14C033A4885
:10093000007838210840C10801208840C5B2294606
:10094000204600F0FCF8044601E00124E4033248AC
:10095000C078E0210840C106C90E002926D1401107
:10096000030001F042F80805090D1115191D202397
:100970000520C00144431AE005200002444316E06C
:100980000F20C001444312E00520400244430EE022
:10099000B720800044430AE0B720C000444306E08B
:1009A0001F48444303E01F48444300E000BF24E0E5
:1009B00019480078C0210840402815D116484078D1
:1009C000C007C00F002802D10124E40315E012483B
:1009D000007A0E2210404208012090400146124841
:1009E00000F0ADF8044608E00B480078C02108404C
:1009F000802801D1040200E070BD0648C03840687C
:100A0000000F411C204600F09AF80849086000BF1A
:100A1000F2E700000081044000400640005006401C
:100A200095080000710B000000093D0014FCFF1F39
:100A3000F3B50446002081B020622046E168884773
:100A400000287AD0252802D06268A16871E0E168A8
:100A500020460025884706460020E0610746A06141
:100A60002A2E0AD0304600F0E5FF002827D0B80033
:100A70000019303E0090866119E00298BA00121900
:100A800002C8916102902046E1688847012F06461E
:100A900017D1E06900281FDA202085431CE0009868
:100AA0000A218069484300998019303888612046BE
:100AB000E1688847064600F0BDFF0028EFD1012F0E
:100AC0000AD02E2E08D12046E1688847064620200D
:100AD00005437F1C022FC3DBA069002803DA4042D4
:100AE000A06101200543E80701D010208543002EB6
:100AF00023D030464138192803D80120C0020543CD
:100B00002036204625603146029A1546FFF716FB2F
:100B100000280BD0012806D0ED1DE808C0000830E1
:100B200002908AE709E02D1D029586E7626830464B
:100B3000A1689047206A401C7EE7206AFEBD002223
:100B400003098B422CD3030A8B4211D300239C460A
:100B50004EE003460B433CD4002243088B4231D382
:100B600003098B421CD3030A8B4201D394463FE016
:100B7000C3098B4201D3CB01C01A524183098B4276
:100B800001D38B01C01A524143098B4201D34B015F
:100B9000C01A524103098B4201D30B01C01A5241C2
:100BA000C3088B4201D3CB00C01A524183088B4249
:100BB00001D38B00C01A524143088B4201D34B0032
:100BC000C01A5241411A00D20146524110467047A4
:100BD0005DE0CA0F00D04942031000D340425340A9
:100BE00000229C4603098B422DD3030A8B4212D369
:100BF000FC22890112BA030A8B420CD3890192119B
:100C00008B4208D3890192118B4204D389013AD0D7
:100C1000921100E08909C3098B4201D3CB01C01AAC
:100C2000524183098B4201D38B01C01A52414309BF
:100C30008B4201D34B01C01A524103098B4201D3AD
:100C40000B01C01A5241C3088B4201D3CB00C01A1A
:100C5000524183088B4201D38B00C01A5241D9D232
:100C600043088B4201D34B00C01A5241411A00D2B3
:100C70000146634652415B10104601D34042002BAF
:100C800000D54942704763465B1000D3404201B52E
:100C90000020C046C04602BD1F22030C02D10F2215
:100CA00000041CD0030E01D10002083A030F01D149
:100CB0000001121F830F01D18000921E002801DB6A
:100CC0004000521ED20551180212511819229040AC
:100CD00004D3491C002801D149084900084670473F
:100CE000C10FC90700D04042012292071143D3E748
:100CF00001218907D0E700007047FFB50C461E466A
:100D00008FB003CA089009914F007D0D00D16D1E70
:100D1000002108460020C0460321099A89050840A1
:100D2000002A03DA8200801840080840800D01285C
:100D30000A9002DD0020C0430A90089807430DD0B6
:100D4000F048F149281848430714189800281DD086
:100D50007542291E1DDD0A9842421BE018980128A1
:100D600002D00020302104E00020F24305E02154AD
:100D7000401CB042FBDB30460022189B002121546E
:100D80000F998B600A60486013B0F0BDBD1B6D1CED
:100D9000DFE70A9A002900DA69420BA800F056FA48
:100DA0000BAB07CB03AB07C30899099800F0BAFA5D
:100DB0006B4607C30146D5480918002D00910BDD8D
:100DC000D24903980A9A49424018002303A9039084
:100DD000684600F017FD08E003990A9A00230818F6
:100DE00003A90390684600F0B7FC6B4607C30004F4
:100DF000000C03D00020C043410800E01046189AC0
:100E0000002A03D00022009215461EE0751E05D46C
:100E100000F09BF9303262556D1EF9D5012208436E
:100E2000079602D000227F1C04E02078302801D1F0
:100E300000227F1E002A069787D01EE0112D07DAB8
:100E400000F083F9303262556D1C02460A43F5D139
:100E5000084303D00098002819D00EE00021681E36
:100E600005E0235C625C63542254401E491C8142AD
:100E7000F7DBA81B401E07950690079A18990020DB
:100E8000A0540F98079B069A81600CC07CE711263E
:100E90000020189059E7D21DF0B50D460446D10840
:100EA00093B0C90003C90C900D9100F0ADFD02464E
:100EB0000D98C00F01D02D2007E02068810701D5D3
:100EC0002B2002E04007C00F4001032A0F9001D001
:100ED000072A05DB03462946204600F073F90EE198
:100EE0002078800601D5E76900E006272846652DB1
:100EF00004D0662814D0672D69D12DE00020112F71
:100F0000009001DB112300E07B1C0CAA03A910A8B0
:100F1000FFF7F3FE1199002610987D1C0E9142E018
:100F200001203B460CAAC0070B900120009003A9AA
:100F300010A8FFF7E2FE119D1298109900260028D4
:100F40000E9501D1781C0D18781B02D446427D1CE9
:100F5000761EE81B00903AE0012F00DA01270020FE
:100F6000112F009001DD112300E03B460CAA03A9DC
:100F700010A8FFF7C2FE11993D46109800260E9169
:100F8000217809070BD40E99A94200DA0D4603A96E
:100F9000012D04DD4A19203AD27F302A06D0B8420A
:100FA00001DA011D04DA012100910FE06D1EEFE767
:100FB000002802DC86192D1A03E0411CA94200DD3D
:100FC0000D46801B401C00900120C0070B9020782C
:100FD000000705D40098A84202DB0020C04300901F
:100FE00069460020C8720B98012102AF0337C90778
:100FF000884225D0022010902B2011900B980028B9
:101000000BDA40420B902D20119006E00B9800F077
:1010100049FC30317F1E0B9039701099481E002911
:101020001090F3DC0B980028F0D111987F1E3870D7
:101030002088000501D5452000E065207F1E38701E
:1010400001A8C01BC01D0B900F98002800D00120E4
:1010500041190098C01709180B980818A169081AB7
:10106000401EA0612078C00602D42046C046C0467B
:101070000F98002805D06268A1689047206A401C3C
:1010800020622078C00625D52046C046C04621E013
:10109000002E07DB0E98B04204DD03A86268805D75
:1010A000A16802E06268A16830209047206A761C3F
:1010B000401C20620098401E002800900AD1FFF7D3
:1010C0009BF9C06862680168405CA1689047206A2B
:1010D000401C206228466D1E0028D9DC07E06268AB
:1010E0003878A1687F1C9047206A401C20620B99C9
:1010F000481E00290B90F2DC2046C046C046032063
:1011000042E6000001FCFFFF104D0000E1DFFFFFA1
:1011100001694A1C02610878704700B58FB00291DE
:1011200000210591054901937944039111460490EA
:101130006846FFF77DFC0FB000BD0000E5FFFFFF34
:101140000A681070521C0A6070470B4670B5024660
:1011500089078008084319469D08141AA9412509E2
:101160000807054308092C194841250A01060D43C3
:10117000010A2C194141200C0D0428430D0C0019C3
:101180004D41002140194D41C00869070843E90855
:10119000840F8D002543840024184D4124196D418E
:1011A000121BAB4107E00925ED432C115219634195
:1011B0000024401C61411C460A250026551BB441F1
:1011C000F1D270BDF8B51F46044601230068DB026A
:1011D000032601461840072A05DB002801D017A581
:1011E00006E017A504E0002801D016A500E016A52A
:1011F000102081432160A069C01E002FA06101D092
:10120000401EA0612046C046C046002F09D0384687
:101210006268A1689047206A401C2062C01C20625E
:1012200006E0206AFAE762682878A1686D1C90479A
:10123000761EF8D22046C046C046F8BD4E414E004C
:101240006E616E00494E4600696E6600F7B516463F
:101250008AB0334878446C4603467C33C06F5A6882
:101260009B680DC42E487844763003AC0DC80DC47D
:101270003720C001081837211B30FFF76AFC0546EC
:101280000C46803D1B3C02D56442012000E000205A
:101290000027099010E0E0070CD00C20204978438B
:1012A000794432464C3941186846012300F054FA1B
:1012B0006B4607C364107F1C002CECD1184F7F4491
:1012C0002E3F16E0E80712D02001C0190EC8069183
:1012D000089307920068F04201D1981908903246AD
:1012E000012306A903A800F037FA03AB07C36D106A
:1012F000641C002DE6D10998002806D032466946C4
:10130000012303A800F07EFA05E001233246694676
:1013100003A800F021FA0A9B07C30DB0F0BD00003E
:10132000D8080000034640000A4610B5400D0BD017
:101330000121C9070F24A40200191C0364082143DA
:10134000540D2143D20207E000210120F2E7D40F1F
:10135000490021435200401E0029F8DADB0FDB0769
:10136000184310BDFFB50D46144685B04868516856
:1013700000F023FB00910190A868A16800F01DFB1C
:1013800002910390A868616800F017FB029A121896
:101390008242029201D2012000E00020019A0B1843
:1013A000D2180028019202D08A4202D903E08A4270
:1013B00001D2012000E00020009908180090686820
:1013C000A16800F0FAFA029A12188242029201D23F
:1013D000012000E00020019A0B18D2180028019289
:1013E00002D08A4202D903E08A4201D2012000E001
:1013F00000200099081800902868216840004900E2
:10140000400849084018FA49471814E0019940007B
:10141000C90F08430090019802994000C90F084382
:101420000190029803994000C90F08430290039865
:1014300040007F1E039000980028E7DA08980028F3
:1014400001D0EC4E00E00026B74201DA012000E0B6
:101450000020002804902AD0F71BF806C00E15D0F3
:10146000029B2021091A039A8B401A430392029A85
:10147000019BC2408B401A430292019A009BC240DA
:101480008B4000991A430192C14000917B110DD00D
:101490006F460320C11A03D500218200B95003E032
:1014A0008A008100BA587A50401EF3D53746039817
:1014B0000299002800D001200143089802910028D9
:1014C00008460CD0002800D001200199019A490556
:1014D00008430121D20AC902D202019200E001218F
:1014E0000E9B0122D207012B02D0002B03D013E068
:1014F000002807D120E0904204D890420CD1019BF3
:101500000B4209D0019B5918019105D10099491C42
:10151000009101D17F1C009200280DD010210846B7
:101520000020C0460498002806D00F98002803D059
:10153000082108460020C04628682168019B009ABF
:101540004840C10F0598C90739430EC009B0F0BD26
:10155000FFB587B0099A089808995368926840685F
:10156000896896460022039317469446089A1268A3
:101570005300099A5B081268520052089A1A9E4B4F
:10158000D4180A9A002A01D0352200E0402206929F
:101590000022012315460492DB07059324E0002D69
:1015A00005D175460346039E4D1BB34109D37546CD
:1015B0006646039B491B049D9841059B7519AC46E3
:1015C0005F4163463B4308D0059B049EDD077608D8
:1015D0002E435B080496059301E0521E641EC50F5E
:1015E000ED0749184041521C069B9A42D7DB002D5B
:1015F00004D17546039A6B1A824101D203200CE094
:10160000039A0B466B404240134303D0014303D07F
:10161000012002E0022000E000206146019100214B
:10162000009702910A99002905D0614640020143C2
:10163000704B019102E08007002302909C4201DA86
:10164000012000E0002007003AD01A1BD006C00E8F
:1016500015D0029D2021019C091AC5408C402543CC
:10166000029C8C4000D001242543019C0295009DE2
:10167000C4408D4000992C430194C1400091541105
:101680001DD06D460221002202290CD10320001B2F
:1016900007E0002804DB8600AE59002E00D00122AE
:1016A000401C0328F5DB081B02D588002A5004E003
:1016B0008000285810438A00A850491EE3D51C46D4
:1016C0000A98002802980CD0002800D00120019927
:1016D000019A490508430121D20AC902D2020192A6
:1016E00000E00121109B0122D207012B02D0002B28
:1016F00003D013E0002807D11FE0904204D89042A5
:101700000CD1019B0B4209D0019B5918019105D1C5
:101710000099491C009101D1641C009200280CD052
:10172000102108460020C046002F06D0119800283E
:1017300003D0082108460020C04608980999019A5C
:10174000009B006809684840C10F0798C9072143FA
:1017500082600AC00BB0F0BD00B585B00193009265
:101760000A460146002302A8FFF7FCFD02A807C8AD
:1017700005B000BDFFB50A461F4685B00799019325
:1017800001230091014602A8FFF7ECFD029903989E
:10179000049ECA0F4900D20700920F224908920204
:1017A0008C1A0021002800DB0C46450013486D0808
:1017B000844214D3079A002A04DA441E0026104DEE
:1017C000F64302E004460D460E461021084600206E
:1017D000C046002F03D0042108460020C046200543
:1017E000E90A0843009908436905F20A1143ADE686
:1017F00002C0FFFF013C0000FF3F0000FF070000A8
:10180000FFFFFF7F00B585B0019300920A460146B5
:10181000002302A8FFF79CFE02A807C8A8E7FFB5AF
:101820000A461F4685B0079901930123009101469E
:1018300002A8FFF78DFE02990398049ECA0F490083
:10184000D20700920F22490892028C1A0021002828
:1018500000DB0C46450011486D08844214D3079AFA
:10186000002A04DA441E00260D4DF64302E0044629
:101870000D460E46102108460020C046002F03D01A
:10188000042108460020C0462005E90A08430099C3
:1018900008436905F20A114358E60000FF070000FB
:1018A000FFFFFF7F01468008081A02091018020A8C
:1018B0001018020C1018C008820012185200891A61
:1018C00001E0401C0A390A29FBD2704700487047E2
:1018D00018FCFF1F7546FFF7F9FFAE460500694685
:1018E0005346C008C000854618B020B5FEF732FD4B
:1018F00060BC00274908B6460026C0C5C0C5C0C5A3
:10190000C0C5C0C5C0C5C0C5C0C5403D49008D46A5
:10191000704710B50446C046C0462046FEF72BFC73
:1019200010BD0000024670B50A4392072AD11E4D31
:10193000EE0104C808C9541B9443344017D0D0B2F8
:10194000D9B2401A2106014310D190B299B2401A7F
:10195000210401430AD110021902000A090A401A9F
:101960002102014302D1100E190E401A70BD9A4295
:10197000DFD010BA19BA884201D9012070BD002009
:10198000C04370BD02780B78401C491C002A09D066
:101990009A4207D102780B78401C491C002A01D0DA
:1019A0009A42EFD0D01A70BD0101010101491820FF
:1019B000ABBEFEE7260002007047F8B5040C8BB200
:1019C000264682B25E43104658430D0C370C36044F
:1019D00000218019164679416E43370C3604801970
:1019E000264679416E438919F8BD30B47446641EA9
:1019F0002578641CAB4204D3635D5B00E31830BC04
:101A000018471D46F8E700004900CA0202431000CB
:101A100000D004204A0D01D001221043044A490D90
:101A2000914201D102210843012800D105207047CD
:101A3000FF07000030380A2801D20120704700203B
:101A40007047000010B500290AD00878002807D098
:101A500005487844FFF766FF002801D0002010BD3C
:101A60000248784410BD0000920100008A01000085
:101A700070B5420064414B005C41120E39D01B0E20
:101A800038D0FF2A3CD0FF2B3AD040024902400A0E
:101A9000490A060045184E43000A090AD21848436D
:101AA000ED017F3A0104731A4019190C4318990F7C
:101AB00004D001215B0849075B1A521CD80904D3E2
:101AC000401CF50301D19D0607D0FF2A08D2D50599
:101AD00006D0E4072043401970BD0125A843F4E770
:101AE000002A01DCE00770BD2402FF202043C0056E
:101AF00070BD1B0EFF2A03D0FF2B01D0E00770BD85
:101B0000FF2645003606B54206D84D00B54203D83B
:101B1000D218FF2A00D0E7E7004870BD0000C07F60
:101B200003B402487844844603BC60476FF3FFFF68
:101B300002400000000000A000000000054000007E
:101B4000000000C8000000000C4000000000409CA5
:101B500000000000194000000020BCBE0000000092
:101B600034400000BFC91B8E00000004B5400000D7
:101B7000504BCFD06607E2CF010000006C4100005F
:101B80003E8251AADFEEA73401000000D9420000D6
:101B9000DCB5A0E23A301F97FFFFFFFFB44500001D
:101BA000FD25A0C8E9A3C14FFFFFFFFFFF3F0000D5
:101BB0000000008000000000FF3F000000000080E7
:101BC00000000000001C000000FCFF1F18000000C7
:101BD00004010000181C000018FCFF1F6003000037
:101BE000200100001C00000043000000F8FFFFFF80
:101BF0000C0000000E0000000F0000002E0000008E
:101C0000000000000127000016493A3A00000000D9
:081C100000000000000080024A
:04000005000000C136
:00000001FF
